S00B00005744472E7372656337
S11300000C9434000C9451000C9451000C94510045
S11300100C9451000C9451000C9451000C947101F7
S11300200C9451000C9451000C9451000C944D010B
S11300300C9451000C9451000C9451000C945100F8
S11300400C9451000C9451000C9451000C945100E8
S11300500C9451000C9451000C9451000C945100D8
S11300600C9451000C94510011241FBECFEFD8E022
S1130070DEBFCDBF11E0A0E0B1E0ECEAF4E002C0E5
S113008005900D92A230B107D9F721E0A2E0B1E0CA
S113009001C01D92AB31B207E1F70E94D0000C946D
S11300A054020C940000259A0895662369F045B122
S11300B021E030E0B90102C0660F771F8A95E2F7AC
S11300C0CB01842B85B9089545B121E030E0B90115
S11300D002C0660F771F8A95E2F7CB0180958423CF
S11300E085B9089594B121E030E002C0220F331F96
S11300F08A95E2F7292B24B908950E945300609150
S1130100000185E00E9455000E949601609302015F
S11301107093030180930401909305010895CF9295
S1130120DF92EF92FF9282E00E94720061E082E02F
S11301300E9455000E9496016B017C01809102018E
S113014090910301A0910401B0910501A7019601CA
S1130150281B390B4A0B5B0BDA01C901843F914020
S1130160A105B10590F061E080910001811160E08A
S11301706093000185E00E945500C0920201D09274
S11301800301E0920401F09205010E94400260E044
S113019082E00E945500FF90EF90DF90CF90089589
S11301A080E00E94720061E080E00E9455000E949D
S11301B07D000E9424010E9439010E94A1010E9435
S11301C0C4010E9496016B017C0180910A01909107
S11301D00B01A0910C01B0910D01A7019601281B00
S11301E0390B4A0B5B0B2A3031054105510550F0A0
S11301F00E948F00C0920A01D0920B01E0920C0180
S1130200F0920D010E9496016B017C018091060120
S113021090910701A0910801B0910901A7019601ED
S1130220281B390B4A0B5B0B243131054105510561
S113023040F20E94D701C0920601D0920701E092D9
S11302400801F0920901BDCFE1E8F0E08081886007
S113025080838FE293E09093890080938800AFE6D7
S1130260B0E08C9182608C938081836080837894E9
S11302700895E0EBF0E0808182608083E1EBF0E0C0
S11302808081836080838FE18093B300E0E7F0E0B6
S1130290808182608083789408951F920F920FB6B4
S11302A00F9211242F933F934F935F936F937F93F8
S11302B08F939F93AF93BF93EF93FF930E94AF01EC
S11302C0FF91EF91BF91AF919F918F917F916F912A
S11302D05F914F913F912F910F900FBE0F901F9000
S11302E018951F920F920FB60F9211248F939F931C
S11302F0AF93BF9380910E0190910F01A0911001D3
S1130300B09111010196A11DB11D80930E0190932E
S11303100F01A0931001B0931101BF91AF919F9170
S11303208F910F900FBE0F901F901895F8946091C5
S11303300E0170910F018091100190911101789438
S11303400895F894A89584B7877F84BFE0E6F0E029
S11303508081886180838AE4808378940895809181
S11303601201811110C08091010181110CC081E042
S11303700E94720061E081E00E945500A89560E04F
S113038081E00E94550008951092170110921801FF
S11303901092190110921A010E94960160931301A0
S11303A07093140180931501909316010895CF92D0
S11303B0DF92EF92FF920F931F9381E080930101EC
S11303C083E090E00E94720061E070E083E090E0DE
S11303D00E9455000E94960100911301109114018E
S11303E020911501309116016B017C01C01AD10ACC
S11303F0E20AF30A97018601043611052105310545
S113040080F1009117011091180120911901309188
S11304101A01093011052105310580F000911701F9
S1130420109118012091190130911A010C30110515
S11304302105310518F41092120103C021E0209324
S113044012011092170110921801109219011092C2
S11304501A01609313017093140180931501909312
S1130460160160E070E083E090E00E945500109275
S113047001011F910F91FF90EF90DF90CF900895AD
S11304808091170190911801A0911901B0911A015E
S11304900196A11DB11D8093170190931801A0939B
S10F04A01901B0931A010895F894FFCFDD
S10504AC010148
S9030000FC
